{
  "_format": "hh-sol-artifact-1",
  "contractName": "HydrogenCredit",
  "sourceName": "contracts/HydrogenCredit.sol",
  "abi": [
    {
      "inputs": [],
      "stateMutability": "nonpayable",
      "type": "constructor"
    },
    {
      "anonymous": false,
      "inputs": [
        {
          "indexed": true,
          "internalType": "address",
          "name": "buyer",
          "type": "address"
        },
        {
          "indexed": false,
          "internalType": "uint256",
          "name": "amount",
          "type": "uint256"
        }
      ],
      "name": "CreditPurchased",
      "type": "event"
    },
    {
      "anonymous": false,
      "inputs": [
        {
          "indexed": true,
          "internalType": "address",
          "name": "from",
          "type": "address"
        },
        {
          "indexed": true,
          "internalType": "address",
          "name": "to",
          "type": "address"
        },
        {
          "indexed": false,
          "internalType": "uint256",
          "name": "amount",
          "type": "uint256"
        }
      ],
      "name": "CreditTransferred",
      "type": "event"
    },
    {
      "inputs": [
        {
          "internalType": "uint256",
          "name": "amount",
          "type": "uint256"
        }
      ],
      "name": "buyCredits",
      "outputs": [],
      "stateMutability": "payable",
      "type": "function"
    },
    {
      "inputs": [
        {
          "internalType": "address",
          "name": "",
          "type": "address"
        }
      ],
      "name": "credits",
      "outputs": [
        {
          "internalType": "uint256",
          "name": "",
          "type": "uint256"
        }
      ],
      "stateMutability": "view",
      "type": "function"
    },
    {
      "inputs": [],
      "name": "getMyCredits",
      "outputs": [
        {
          "internalType": "uint256",
          "name": "",
          "type": "uint256"
        }
      ],
      "stateMutability": "view",
      "type": "function"
    },
    {
      "inputs": [],
      "name": "owner",
      "outputs": [
        {
          "internalType": "address",
          "name": "",
          "type": "address"
        }
      ],
      "stateMutability": "view",
      "type": "function"
    },
    {
      "inputs": [
        {
          "internalType": "address",
          "name": "to",
          "type": "address"
        },
        {
          "internalType": "uint256",
          "name": "amount",
          "type": "uint256"
        }
      ],
      "name": "transferCredits",
      "outputs": [],
      "stateMutability": "nonpayable",
      "type": "function"
    }
  ],
  "bytecode": "0x608060405234801561001057600080fd5b50336000806101000a81548173ffffffffffffffffffffffffffffffffffffffff021916908373ffffffffffffffffffffffffffffffffffffffff1602179055506107bc806100606000396000f3fe60806040526004361061004a5760003560e01c80630c4dfe3f1461004f57806312d32f001461006b5780638da5cb5b14610096578063fb97033e146100c1578063fe5ff468146100ea575b600080fd5b61006960048036038101906100649190610478565b610127565b005b34801561007757600080fd5b50610080610223565b60405161008d91906104b4565b60405180910390f35b3480156100a257600080fd5b506100ab61026a565b6040516100b89190610510565b60405180910390f35b3480156100cd57600080fd5b506100e860048036038101906100e39190610557565b61028e565b005b3480156100f657600080fd5b50610111600480360381019061010c9190610597565b610425565b60405161011e91906104b4565b60405180910390f35b662386f26fc100008161013a91906105f3565b34101561017c576040517f08c379a000000000000000000000000000000000000000000000000000000000815260040161017390610692565b60405180910390fd5b80600160003373ffffffffffffffffffffffffffffffffffffffff1673ffffffffffffffffffffffffffffffffffffffff16815260200190815260200160002060008282546101cb91906106b2565b925050819055503373ffffffffffffffffffffffffffffffffffffffff167facf2bdc99696da35cbfe300e8b7d3d337ffc9918d8547c58ef8b58a20ec075df8260405161021891906104b4565b60405180910390a250565b6000600160003373ffffffffffffffffffffffffffffffffffffffff1673ffffffffffffffffffffffffffffffffffffffff16815260200190815260200160002054905090565b60008054906101000a900473ffffffffffffffffffffffffffffffffffffffff1681565b80600160003373ffffffffffffffffffffffffffffffffffffffff1673ffffffffffffffffffffffffffffffffffffffff168152602001908152602001600020541015610310576040517f08c379a000000000000000000000000000000000000000000000000000000000815260040161030790610732565b60405180910390fd5b80600160003373ffffffffffffffffffffffffffffffffffffffff1673ffffffffffffffffffffffffffffffffffffffff168152602001908152602001600020600082825461035f9190610752565b9250508190555080600160008473ffffffffffffffffffffffffffffffffffffffff1673ffffffffffffffffffffffffffffffffffffffff16815260200190815260200160002060008282546103b591906106b2565b925050819055508173ffffffffffffffffffffffffffffffffffffffff163373ffffffffffffffffffffffffffffffffffffffff167f54804748cdf0e263a1475639e987273478ffdcc82e1b057367789c87e8d9571a8360405161041991906104b4565b60405180910390a35050565b60016020528060005260406000206000915090505481565b600080fd5b6000819050919050565b61045581610442565b811461046057600080fd5b50565b6000813590506104728161044c565b92915050565b60006020828403121561048e5761048d61043d565b5b600061049c84828501610463565b91505092915050565b6104ae81610442565b82525050565b60006020820190506104c960008301846104a5565b92915050565b600073ffffffffffffffffffffffffffffffffffffffff82169050919050565b60006104fa826104cf565b9050919050565b61050a816104ef565b82525050565b60006020820190506105256000830184610501565b92915050565b610534816104ef565b811461053f57600080fd5b50565b6000813590506105518161052b565b92915050565b6000806040838503121561056e5761056d61043d565b5b600061057c85828601610542565b925050602061058d85828601610463565b9150509250929050565b6000602082840312156105ad576105ac61043d565b5b60006105bb84828501610542565b91505092915050565b7f4e487b7100000000000000000000000000000000000000000000000000000000600052601160045260246000fd5b60006105fe82610442565b915061060983610442565b925082820261061781610442565b9150828204841483151761062e5761062d6105c4565b5b5092915050565b600082825260208201905092915050565b7f496e73756666696369656e74207061796d656e74000000000000000000000000600082015250565b600061067c601483610635565b915061068782610646565b602082019050919050565b600060208201905081810360008301526106ab8161066f565b9050919050565b60006106bd82610442565b91506106c883610442565b92508282019050808211156106e0576106df6105c4565b5b92915050565b7f4e6f7420656e6f75676820637265646974730000000000000000000000000000600082015250565b600061071c601283610635565b9150610727826106e6565b602082019050919050565b6000602082019050818103600083015261074b8161070f565b9050919050565b600061075d82610442565b915061076883610442565b92508282039050818111156107805761077f6105c4565b5b9291505056fea2646970667358221220379725eac41ddb8b19d74edf5233ea7832bd1163884c06c19566dc07f292433864736f6c63430008140033",
  "linkReferences": {},
  "deployedLinkReferences": {}
}